:1020000000800020955E00007D5E00007D5E000087
:1020100000000000000000000000000000000000C0
:102020000000000000000000000000007D5E0000D5
:1020300000000000000000007D5E0000E95E00007E
:102040007D5E00007D5E00007D5E00007D5E000024
:102050007D5E00007D5E00007D5E0000815E000010
:102060007D5E0000194400007D5E00007D5E000082
:10207000ED3200007D5E0000294400007D5E00001E
:102080007D5E00007D5E00007D5E00007D5E0000E4
:10209000000000007D5E00007D5E00007D5E0000AF
:1020A0007D5E00007D5E00007D5E00007D5E0000C4
:1020B0000000000010B5064C2378002B07D1054B1B
:1020C000002B02D0044800E000BF0123237010BDA4
:1020D0007001002000000000A493000008B5084B28
:1020E000002B03D00748084900E000BF07480368F9
:1020F000002B03D0064B002B00D0984708BDC046EC
:1021000000000000A4930000740100206001002082
:102110000000000008B50248024903F075FA08BD46
:10212000B4060020E886000008B50449044803F01E
:102130006BFA0D20012104F0E1F808BDEE860000E5
:10214000B406002008B50449044803F05DFA0D20E8
:10215000002104F0D3F808BDF5860000B406002085
:1021600038B51549154803F04FFA9624144D154B10
:10217000640019682868231C012200F0F5FD124B49
:10218000286819680122231C00F0EEFD0F4B286817
:1021900019680122231C00F0E7FD0D4B286819681F
:1021A0000122231C00F0E0FD0A4B28681968012277
:1021B000231C00F0D9FD38BDFD860000B4060020C8
:1021C0005C030020700300207403002060030020E3
:1021D0006C0300208402002038B51249124803F035
:1021E00013FA124C124BFA251968AD000122D223C2
:1021F000206800F0F1FD281C03F08AFE0D4B01223F
:102200001968BE239340206800F0E6FD281C03F007
:102210007FFE094B206819680122962300F0DCFD3F
:1022200038BDC04603870000B40600205C030020D0
:1022300070030020600300207403002038B5124CA6
:102240001249201C03F0E0F9114800F043FE002879
:102250000CD006F04FF80F49051C201C03F0B8F90C
:10226000201C291C0A2203F022FA04E0201C0A493F
:1022700003F0CAF90125094B01221868084B1968B7
:102280002B1C00F071FD38BDB40600200E87000045
:102290008C010020258700003A8700005C030020A5
:1022A0007003002038B5124C1249201C03F0ACF921
:1022B000114800F00FFE00280CD006F01BF80F4963
:1022C000051C201C03F084F9201C291C0A2203F0A1
:1022D000EEF904E0201C0A4903F096F90125094BA8
:1022E00001221868084B19682B1C00F075FD38BDD9
:1022F000B4060020478700008C01002025870000DD
:102300003A8700005C0300207003002038B5124CAF
:102310001249201C03F078F9114800F0DBFD002879
:102320000CD005F0E7FF0F49051C201C03F050F905
:10233000201C291C0A2203F0BAF904E0201C0A49D7
:1023400003F062F90125094B01221868084B19684E
:102350002B1C00F009FD38BDB40600206487000086
:102360008C010020258700003A8700005C030020D4
:102370007403002038B5124C1249201C03F044F9B4
:10238000114800F0A7FD00280CD005F0B3FF0F495D
:10239000051C201C03F01CF9201C291C0A2203F038
:1023A00086F904E0201C0A4903F02EF90125094BA7
:1023B00001221868084B19682B1C00F00DFD38BD70
:1023C000B4060020648700008C01002025870000EF
:1023D0003A8700005C0300207403002038B5124CDB
:1023E0001249201C03F010F9114800F073FD002879
:1023F0000CD005F07FFF0F49051C201C03F0E8F806
:10240000201C291C0A2203F052F904E0201C0A496E
:1024100003F0FAF80125094B01221868084B1968E6
:102420002B1C00F0A1FC38BDB40600207B87000007
:102430008C010020258700003A8700005C03002003
:102440006003002038B5124C1249201C03F0DCF860
:10245000114800F03FFD00280CD005F04BFF0F495C
:10246000051C201C03F0B4F8201C291C0A2203F0D0
:102470001EF904E0201C0A4903F0C6F80125094BA7
:1024800001221868084B19682B1C00F0A5FC38BD08
:10249000B4060020948700008C01002025870000EE
:1024A0003A8700005C0300206003002038B5124C1E
:1024B0001249201C03F0A8F8114800F00BFD002879
:1024C0000CD005F017FF0F49051C201C03F080F805
:1024D000201C291C0A2203F0EAF804E0201C0A4907
:1024E00003F092F80125094B01221868084B19687E
:1024F0002B1C00F039FC38BDB4060020B387000067
:102500008C010020258700003A8700005C03002032
:102510006C03002038B5124C1249201C03F074F8EB
:10252000114800F0D7FC00280CD005F0E3FE0F495D
:10253000051C201C03F04CF8201C291C0A2203F067
:10254000B6F804E0201C0A4903F05EF80125094BA7
:1025500001221868084B19682B1C00F005FC38BDD7
:10256000B4060020D48700008C01002025870000DD
:102570003A8700005C0300208402002038B5094837
:1025800000F0A8FC084C051C201C002D05D00749B4
:1025900003F01EF8201C291C00E0054903F034F864
:1025A00038BDC0468C010020B4060020F38700002F
:1025B000FA87000070B5102088B005F0D1FE0390B6
:1025C000041C102005F0CCFE0490102005F0C8FE7D
:1025D0000590102005F0C4FE0690102005F0C0FE06
:1025E0005A4D0790002C03D1281C594903F00CF8D0
:1025F000039B002B03D1281C564903F005F8039BCD
:10260000002B03D1281C544902F0FEFF039B002B32
:1026100003D1281C514902F0F7FF039B002B03D183
:10262000281C4E4902F0F0FF039A06210023516056
:10263000C8200121D060517013721370049A0724CE
:10264000D0605460517013721370059A0524D060E5
:102650005460517013721370069A0D24D06051703B
:10266000137254601370079AD0600C205060517040
:1026700013721370281C3A4902F0C6FF394E301C01
:1026800000F03CFB002801D001265BE03649281C05
:1026900002F0BAFF03AB0093344B354C0193306822
:1026A00034492268636800F037FB0028ECD13249D6
:1026B000281C02F0A9FF04AB0093304B3049019372
:1026C00030682268636800F027FB0028DCD105AB86
:1026D00000932C4B2C49019330682268636800F00A
:1026E0001BFB0028D0D106AB0093284B284901934F
:1026F00030682268636800F00FFB0028C4D107AB84
:102700000093244B2449019330682268636800F0E9
:1027100003FB0028B8D12149281C02F075FF30685E
:1027200000F019FB061EAFD1201C00F045FF1C492C
:10273000201C00F0F1FE0A2003F0EAFB281C1949D6
:1027400002F062FF301C08B070BDC046B406002025
:1027500011880000208800002F88000040880000B9
:102760004F8800005C0300205F88000030000020DC
:1027700064030020700300207788000040000020E0
:1027800074030020200000206003002010000020BF
:1027900084020020000000206C03002086880000D6
:1027A00000005C429388000010B50D490D4802F00E
:1027B0002BFF0D4C0D4B206819680122962300F069
:1027C000D3FA0B4B206819680122DC2300F0CCFA05
:1027D000084B206819680122DC2300F0C5FA10BDFF
:1027E0009D880000B40600205C03002074030020D4
:1027F000600300207003002010B50E490E4802F05F
:1028000003FF0E4C0E4B206819680122962300F03E
:10281000E3FA0C4B01221968BE239340206800F0B4
:10282000DBFA094B206819680122DC2300F0D4FA96
:1028300010BDC046B3880000B40600205C03002031
:1028400074030020600300207003002010B50F49BE
:102850000F4802F0D9FE0F4B0F4C19680122B92323
:102860009340206800F080FA0C4B01221968BE23C7
:102870009340206800F078FA094B01221968E1239F
:102880002068934000F070FA10BDC046CA8800006E
:10289000B4060020600300205C03002070030020C9
:1028A0007403002010B50E490E4802F0ADFE0E4C28
:1028B0000E4B206819680122962300F08DFA0C4B0C
:1028C000206819680122DC2300F086FA094B0122F6
:1028D0001968BE232068934000F07EFA10BDC04600
:1028E000E2880000B40600205C030020740300208E
:1028F000600300207003002010B50E490E4802F05E
:1029000083FE0E4B0E4C19680122E1239340206890
:1029100000F062FA0B4B206819680122DC2300F0FA
:102920005BFA094B206819680122DC2300F054FA95
:1029300010BDC046F6880000B406002074030020D5
:102940005C030020600300207003002010B5234CBE
:102950002349201C234A00F0C6FA201C2249234A9E
:1029600000F0C1FA201C2249224A00F0BCFA201CC7
:102970002149224A00F0B7FA201C2149214A00F0DF
:10298000B2FA201C2049214A00F0ADFA201C20494F
:10299000204A00F0A8FA201C1F49204A00F0A3FAA0
:1029A000201C1F491F4A00F09EFA201C1E491F4A86
:1029B00000F099FA201C1E491E4A00F094FA201CCF
:1029C0001D491E4A00F08FFA201C1D4A1D4900F0C7
:1029D0008AFA201C1C4900F09AFA10BD8C010020D4
:1029E0000F89000029210000128900004521000004
:1029F000168900007D250000168C00003D22000095
:102A00001C890000A52200001A8C00000D23000084
:102A10001F8900007523000014890000DD230000D9
:102A2000228900004524000025890000AD24000013
:102A300028890000152500002B890000D9210000FD
:102A4000612100002E89000015210000011C08B53D
:102A5000014802F0CFFDFEE7B406002010B5007873
:102A600086B000230093019302930393049305938C
:102A700098422CD0303805281AD803F041FD0306BF
:102A80000A0E1216009B013313E0019B01330193E0
:102A900010E0029B013302930CE0039B013303938C
:102AA00008E0049B0133049304E00123059301E053
:102AB000012300930022131C6C46900099002058BB
:102AC0006158884200DDD3B20132062AF4D1181CC5
:102AD00006B010BDF7B501210D2003F0B5FBFFF7DF
:102AE00069FDFFF733FFFA20400003F011FAFFF70A
:102AF000ADFE364DE121281C490201F07BFD344931
:102B0000281C02F077FD3349281C02F073FD32497E
:102B1000281C02F059FD314F0121381C0A1C01F01C
:102B200069F92C1C3E1C002801D12D480EE02D49CE
:102B3000281C02F05FFD2C49281C02F05BFD381CAC
:102B4000012100F075FF002802D12848FFF77EFF21
:102B50000021381C00F088FF2549281C02F054FD94
:102B6000381C00F0A5FF2349281C02F043FD224930
:102B7000281C02F03FFD281C02F034FD00237B746A
:102B8000301C00F083FF002804D1FA20400003F03D
:102B9000BFF9F5E7301C194900F0D2FF002814D026
:102BA000174D201C291C02F025FD1649201C02F09F
:102BB00021FD0023144900930193301C1A1C00F0DE
:102BC000D1FE201C291C02F015FDF7BDB406002023
:102BD000338900005B89000083890000880200209F
:102BE000AA890000F2890000F6890000138A00001B
:102BF0002A8A0000458A0000828A0000AD8A00000F
:102C0000B38A0000D28A0000EE8A000073B528481B
:102C100000F080F9274C2849201C02F0F5FCFA202E
:102C20008000251C03F074F9123500222389291C29
:102C30000092201C402200F059FD281C1F4905F07D
:102C40001FFC002832D0281C1D4905F019FC002863
:102C50002CD01C4E1C49301C02F0B6FC301C291C28
:102C600002F0D2FC281CFFF7F9FE012802D1FFF781
:102C70009BFD1BE0022802D1FFF714FE16E003289B
:102C800002D1FFF7B9FD11E0042802D1FFF734FEAD
:102C90000CE0052802D1FFF7D9FD07E0062802D194
:102CA000FFF79AFA02E0201C00F066FD73BDC046F3
:102CB0008C01002088020020008B00002B8900007E
:102CC0000D8B0000B40600200F8B000008B50748EC
:102CD00000F0EAF806494022064800F0BDFB06482D
:102CE00008210722042300F06DFF08BD8C0100209D
:102CF00078030020640300208802002038B5051CFA
:102D0000082005F02DFB01230370041C00F05CF982
:102D100060602C60002038BDF7B5061C0F1C6D46A6
:102D200000920193002814D01C2005F019FB031C0D
:102D300006CD06C3089B041C1B680025C360099BC5
:102D400005720361211C706800F046F93C60281C84
:102D500000E00120FEBD002803D000230370181CF2
:102D600000E001207047000070B51C1C0B69161CA8
:102D70001A780D1C012A06D1012E0CD19A68301C3C
:102D8000944208D922E0022A05D1002E03D1DA6844
:102D9000012094421AD3DA68944202D39B689C4281
:102DA00005D90B480B4902F02FFC01200EE0EB681F
:102DB000281C19790022A3B200F051FBEB68022213
:102DC00000205A7018701E72DC60AC6170BDC04685
:102DD000B4060020178B0000F8B51D1C0B69161CEB
:102DE0001A780C1C012A06D1012E0CD19A68301CCD
:102DF000954208D949E0022A05D1002E03D1DA68AC
:102E00000120954241D3DA68954202D39B689D42E6
:102E100005D91E481E4902F0F7FB012035E0A369E1
:102E200000279D4220D3A369EA1A97420CD8E26892
:102E3000FB1811799BB2201C002200F010FB0A2025
:102E400003F066F80537EEE7E368201C19790022E5
:102E5000ABB200F004FBE368022200205A70187045
:102E60001E72DD60A56110E0A3695A1B9742EBD882
:102E7000E268DB1B11799BB2201C002200F0EFFA04
:102E80000A2003F045F80537EEE7F8BDB406002048
:102E9000178B00000023C118002201334A70102B49
:102EA000F9D142617047000038B5031C0025F433A6
:102EB000041C1D6006490222183005F06AFA0D2331
:102EC0006562201CA376FFF7E5FF201C38BDC046D5
:102ED0007B8B000008B5011C021C18312032002039
:102EE00005F03FFB08BD70B5041C406A161C09289C
:102EF0000CDC1425684328302018102205F0EFFA66
:102F0000636A5D4301336519AE63636270BDF0307F
:102F100001607047F7B5041C294E301C01F0E2FA3D
:102F200000284CDD231CF4331B68002B03D1301C1C
:102F300001F000FB20702278A37E9A422DD100255B
:102F4000211C221C183120326561601C05F009FB30
:102F50001C49E061301C02F03BFBE769AF422ED018
:102F6000636A261C01932836019B9D420EDA311CB0
:102F7000381C102205F09DFA1436002804D11423C1
:102F80005D436519AB6B04E00135EDE7231CF033BD
:102F90001B689847201CFFF77DFF2578281C05F04B
:102FA000D5F90028B8D06269531CA2186361E118F2
:102FB000557000224A700F2BAEDD6261ACE7F7BDA1
:102FC000B4060020258B000008B5082005F0C8F9DC
:102FD00000230360436008BD70B5051C0E1C6C68BF
:102FE000002C01D0251CFAE7082005F0B9F968602B
:102FF0000660446070BDF8B5051C0F1C161C00244B
:10300000B44208D02B68395D1B68281C98470028FB
:1030100001D00134F4E7201CF8BD704708B5183022
:1030200002F0CCFB08BD08B5183002F0DBFB08BD90
:1030300038B5837D0D1C002B06D0041CC434201C25
:1030400002F0E6FB002801D0002004E0201C291C2F
:1030500002F09BFB012038BD08B5183002F0CBFB15
:1030600008BD0000F7B50193FA239B0083600B4B6A
:1030700000250833041C4560036018300F1C161C23
:1030800002F076FB201CC43002F072FB019B27612A
:103090002675A575201C6375FEBDC046308B0000EB
:1030A00070B50D49041C006902F0EEFD206902F0C4
:1030B00083FC1826207D331C4343084D0821EB1860
:1030C000595603F063F9607D08214643AD196956EE
:1030D00003F05CF970BDC046A0860100BC8C000006
:1030E000F7B5041C00200E1C151C0193824231D040
:1030F000271C1837381C02F05AFB2069311C0122AA
:1031000002F096FC002823D0206902F000FD011C8B
:10311000381C02F03AFB01262069AE420ED002F0C4
:1031200067FC0221206902F06DFC206902F0EFFCCF
:10313000011C381C02F029FB0136EDE702F050FCBF
:10314000019B002B05D02069032102F05BFC00E00D
:10315000051CE8B2FEBD08B50123FFF7C1FF08BD9D
:1031600010B5B8235B00C154041CC43002F01FFB2F
:103170000123A37510BDF8B50022B82382755B004A
:10318000041C0F1CC15C006902F052FC002805D130
:103190002069032102F036FC02251DE0261CC436FE
:1031A000301C02F01FFB00280FD0301C256902F0F4
:1031B00005FBC1B2281C02F06AFC0028EED1206990
:1031C000032102F01FFC032506E0051C002F03D09D
:1031D0002069032102F016FC281CF8BD08B5012166
:1031E000FFF7C9FF08BD38B5041C006902F06DFC8B
:1031F000002879D0206902F076FC00280ED12069E1
:1032000002F07BFC00281FD0206902F071FC00282E
:103210001AD0206902F076FC002815D1206902F04E
:10322000E7FB2069032102F0EDFB231CFC33DD6F7B
:10323000002D04D02368201C9B689847A847201CB9
:10324000183002F0B4FA4FE0206902F056FC031C7B
:103250002069002B16D002F0CBFB2069032102F07D
:10326000D1FB206902F04EFC00283DD0201CC43068
:1032700002F09DFA0123A375FC34A36F002B33D019
:10328000984731E002F02AFC00282DD0206902F096
:1032900039FC251C00280FD0C435281C02F0A2FAE6
:1032A000FF21002803D0281C02F088FAC1B220694F
:1032B00002F0FEFBA07517E01835281C02F0A8FAF2
:1032C000031C2069002B02D002F08AFB08E002F008
:1032D0001EFC011C281C02F058FA206902F088FB31
:1032E0002069032102F08EFB38BD000008B50248BA
:1032F000FFF779FF08BDC0467803002008B50348F2
:10330000034914221523FFF7ADFE08BD7803002002
:103310009C060020437A002B04D18372C372C360E1
:1033200001234372704730B585B0041C02AD0068BC
:103330000291039202F01CFB6B79E179227A0093EF
:103340002068002302F07CFC29792068029A02F0B0
:10335000DFFA206802F002FB05B030BD70B5041C36
:103360001826FFF7D7FF2079331C43430D4D082162
:10337000EB18595603F00AF8A079331C434308218F
:10338000EB18595603F002F8607908214643AD194D
:10339000695602F0FBFF044B201C06CBFFF7C3FF6E
:1033A00070BDC046BC8C0000F404002007B5837AD1
:1033B00000910192002B0DD09A0706D5EFF31083F0
:1033C0005A425341C37272B604E0DA0702D58289C9
:1033D000034B9A600099019AFFF7A5FF07BDC0460D
:1033E00000180040837A002B0BD09A0704D5C37ACB
:1033F000002B06D062B604E0DA0702D58289014BC1
:10340000DA6070470018004008B5006802F0B9FAA9
:1034100008BD0000094B0A4A0A491A6000225A7185
:103420001A71094B19601621197118219971172108
:10343000597101215A72D9711A727047F40400202F
:1034400000093D00AC060020FC04002008B503681C
:10345000C9B21B68984708BD416002707047F8B553
:103460000F1C041C0178BF004068161C1D1CFFF7D0
:1034700077FEB91D6068FFF7E9FF311C6068FFF750
:10348000E5FF31126068FFF7E1FF291C6068FFF774
:10349000DDFF29126068FFF7D9FF6068FFF79EFE25
:1034A000F8BD38B5041C0D1C01784068FFF758FEC4
:1034B0006068291C03681B6898476068FFF78EFEE8
:1034C000217801226068FFF746FE60680368DB68C8
:1034D0009847C0B238BD70B5041C0E1C0178406816
:1034E000151CFFF73DFE6068311C03681B68984798
:1034F0006068291C03681B6898476068FFF76EFEC8
:1035000070BD08B500218022FFF7E5FF0A2002F018
:10351000FFFC08BD00000000F8B5061C081C04F004
:10352000EDFD204B1E4A03F0FBFF04F039FE011CA9
:103530001F4803F0FDF8FE21890503F01FFA04F08F
:10354000DDFD194A194B03F089FB00F0ADFE0D1C9F
:10355000041C0021301CFFF7A4FF6F22102302403F
:103560001A43071C0021301CFFF7B5FF291C201C43
:1035700003F0BEF8FE21C2B2301CFFF7ACFF301CD6
:103580003A1C0021FFF7A7FF052002F0C1FC6022D2
:1035900052421743FAB2301C0021FFF79CFFF8BDDE
:1035A000CDCCCCCCCCCCEC3F000000000000E03F08
:1035B00020BCBE45C046C04610B5041C4068FFF79D
:1035C0006FFD201CFFF79DFF201C0249FFF7A4FFA1
:1035D00010BDC04600007A4410B502AC2478837157
:1035E00000238381016043818280C471038110BD07
:1035F0000023038143818381704738B50389828822
:10360000041C9A4202D1C07900281AD0A27960899C
:1036100023685043181804F0BCFE6089A588013067
:10362000291C03F01BF889B261812389AB4203D1C5
:1036300063899BB2A38103E0238901339BB2238179
:10364000012038BDF8B5061C00200D1C171C041CF9
:1036500082420ED0301C291CFFF7CFFF002801D179
:10366000201C06E00134B379A4B2ED18BC42F7D0B7
:10367000F0E7F8BD10B5041C22890023081C9A420B
:1036800012D0A279A18923685143591804F081FE10
:10369000A089A188013002F0E1FF89B2A1812389CC
:1036A000013B9BB223810123181C10BD08B5031CEC
:1036B000081C19890022914207D09A7999891B68C0
:1036C0005143591804F065FE0122101C08BD00008A
:1036D000FA2292008260044A0023026001224360C1
:1036E000027443747047C046588B0000F7B51D1C28
:1036F00008AB1B78061C0F1C009201930024002DC0
:1037000022D03368301C9B689847002814D0336857
:10371000301CDB689847C0B20D28F2D00A2804D1CB
:10372000002CEED0019B002B20D03855009B01349B
:10373000A4B29C42E5D319E0013DADB2002DDED02C
:10374000012002F0E5FBDAE73D55737C002B0FD03A
:10375000002C0DD0074D391C281C01F039FF009BAF
:103760009C4205D2281C01F03DFF01E00025C6E780
:10377000201CFEBDB406002010B5437C94B0041C90
:10378000002B15D01149124801F01EFF10E003A8CC
:10379000104904F075FE002815D003A80E4904F066
:1037A0006FFE002810D0201C123003A904F072FE16
:1037B000002200922389201C03A94022FFF796FFD4
:1037C0000028E4D100E0012014B010BD788B000087
:1037D000B40600202B8900007D8B000037B5041C47
:1037E00000251234038940220095211CFFF77EFF3B
:1037F0002A1CA84204D0201C291C04F041FF021CF2
:10380000101C3EBDF8B5041C0E1C551E6B1C1FD0B1
:10381000236837781A6837213B09092B00D83021F3
:10382000C918201C904723680F221B6817403721B6
:10383000092F00D83021C919201C9847002D04D029
:103840002368201C1B682D2198470136013DDDE7C8
:1038500004204042F8BD0000F7B5089D041C0F1C71
:103860000092019300260099F3B28B4261D2002BA3
:1038700003D1201C3D2101F0AFFE01997300CA5A0B
:10388000FF23111C99430B1C8021C9008B4231D0AE
:1038900010D8802189008B4226D0C022920093420A
:1038A0002ED080225200934238D1201C296801F08A
:1038B0008FFE33E0C022D200934227D006D8A02248
:1038C000D20093422AD10022A95E23E0E022D20056
:1038D00093421DD08022120193421FD12978201CCF
:1038E0000A2201F0F8FE19E0D2B2201C2968FFF785
:1038F00089FF13E0201C29680A2201F0E2FE0DE096
:10390000201C29680A2201F0B0FE07E0298801E0A6
:1039100000216956201C0A2201F0C5FE009B013BD4
:103920009E4203D0201C2C2101F056FE01360435A6
:1039300099E7201C01F056FE002F0AD0637C002B73
:1039400003D00648064901F03FFE201CFFF746FF62
:103950003860201CFFF710FFFEBDC046B4060020F3
:10396000788B0000F0B585B00393057C041C0F1C18
:10397000161C002D03D1036801219B699847391C4F
:10398000201C01F025FE0B9B311C0093201C039A88
:103990000A9BFFF761FF061C002D04D12368201C41
:1039A0009B69291C9847301C05B0F0BDF0B585B067
:1039B0000393057C041C0F1C161C002D03D1036807
:1039C00001219B699847391C201C01F0FDFD0B9BD0
:1039D000311C0093201C039A0A9BFFF73DFF061C35
:1039E000002D04D12368201C9B69291C9847301C9A
:1039F00005B0F0BD07B5011C002203891231009209
:103A00004022FFF773FE0EBD10B5041CFFF760FEE9
:103A1000064B201C2360FA23A36000236365A36583
:103A2000E36523666366A36610BDC046988B0000FD
:103A300070B5041C0E1C0B4901F0DCFD201CFFF7C7
:103A40009BFE051C02F05EFA6065002E03D0FA2092
:103A5000800002F05DFA2368201C5B699847281CEF
:103A600070BDC046E58B00001FB5C02202AB9200BE
:103A70001A80009303AB03910193034900220123B1
:103A8000FFF794FF05B000BDF58B00001FB50023C4
:103A900000930193054903AA0393FFF787FF039857
:103AA000431E9841C0B205B000BDC046F98B00006E
:103AB000F7B5437C1D4F1E4E057C01930023041C6B
:103AC0004374311C381C01F095FD002D04D123688E
:103AD000201C9B6901219847201C164901F08AFD92
:103AE000201CFFF787FF002812D0261C1236301C3E
:103AF000114904F0C5FC00280AD0301C0F4904F01D
:103B0000BFFC002804D0381C311C01F07DFDE7E724
:103B1000002D04D12368201C9B69291C9847381C60
:103B2000034901F067FD019B6374F7BDB4060020F3
:103B300072890000188C00002B8900007D8B00002A
:103B400070B5057C041C0E1C002D03D103680121F7
:103B50009B6998470C49201C01F04CFD201CFFF785
:103B600049FF201C311C123004F08AFCC643201C83
:103B7000F60FFFF701FE002D04D12368201C9B697E
:103B8000291C9847301C70BD1C8C000000230129A3
:103B900004D8037C8B4200D001740123181C7047A9
:103BA00008B5C430FFF724FD08BD10B5041C02F0B1
:103BB000A9F923686268C01A002390425B41D8B219
:103BC00010BD0000F7B5041C0F1C161C1D1CFFF7D0
:103BD0001BFF0F4B201C08332360211C0123009383
:103BE00083314022C430FFF7F7FC231C53330322F8
:103BF0001A70221C5F769E76DD766F32FF2313707B
:103C000053709370231C82330022201C1A70FEBD57
:103C1000888C000013B5037C0122D21A041C0274A4
:103C200069463122C434D31A0731201C0B70FFF7C8
:103C3000E4FC201C02490622FFF704FD13BDC04628
:103C4000B08C0000F7B5051C01916F350023EB56D1
:103C5000061C07270024013303D11448FFF7D4FBC7
:103C600023E000202856002102F048FB019B01219F
:103C70007020B9401940305602F040FB0020285611
:103C8000012102F03BFB712064003056E4B202F0E7
:103C900065FB002801D001231C43013FE1D2002035
:103CA0002856002102F02AFB201CFEBDFC04002047
:103CB00070B5061C0C1C8D18AC4206D02178301C47
:103CC000FFF7C0FF20700134F6E770BDF0B58BB090
:103CD0001E1C10AB1B78041C0F1C00920193002BC0
:103CE00002D103685B69984705AD1023E9782B7012
:103CF0003B12AB707F23321C99431A400B1C1343B9
:103D0000EB706F700023102E02D1019A0123134033
:103D1000E978DA017F230B401343EB70009B002B03
:103D200006D0002E04D006A8191C321C04F031FB6A
:103D3000221C6F3200920023D356013304D1264B4C
:103D4000264806CBFFF732FB271C6C37002038567D
:103D5000002102F0D3FAA368019302F0D3F8019A8C
:103D6000039004922978201CFFF76CFFFE2804D1F1
:103D700003A8FFF71AFF00281BD003A8FFF715FFC1
:103D800001254540EDB2002D05D06946F21C201CEE
:103D90001531FFF78DFF00203856012102F0AEFAF1
:103DA000009A0023D356013312D10C48FFF71AFBB7
:103DB0000EE000203856012102F0A0FAC8239B0033
:103DC000013BFDD16C202056002102F097FAC9E793
:103DD000281C0BB0F0BDC0460C050020FC040020E0
:103DE00007B50023009302491A1CFFF76FFF0EBDB1
:103DF000EFBE0000F8B54174041C6D202056002170
:103E0000251C171C6C3502F01FFA002028560121D2
:103E100002F01AFA00202856012102F06FFA033549
:103E200000202856431C03D12048FFF797FA11E0E1
:103E3000012102F009FA00202856002102F05EFA62
:103E400071202056002102F0FFF970202056012138
:103E500002F0FAF9201CFFF7C3FF251C061C6E3583
:103E600000202856002815DB012102F0EDF9002082
:103E70002856012102F042FA00200021285602F0C3
:103E80003DFA0A2002F044F800202856012102F0F1
:103E900035FA012602F036F86065002F03D0FA20CB
:103EA000800002F035F8301CF8BDC046FC0400204C
:103EB000F0B5826885B05600051C0C1C02F022F893
:103EC000039602906D20285602F048FA061E06D18D
:103ED00002A8FFF76AFE0028F4D0341C86E02B1CF1
:103EE0006F3301931B785BB2013304D1414B4248DD
:103EF00006CBFFF75BFA2E1C6C36002030560021F3
:103F000002F0FCF9AF6801F0FDFF0397029002A8F0
:103F1000FFF74BFE00281BD1281CFF21FFF792FE64
:103F20002070FE2801D0FF280DD10020305601213D
:103F300002F0E4F9C8239B00013BFDD16C20285618
:103F4000002102F0DBF923780233DBB2012BDED94A
:103F50002378202B06D0802B04D002A8FFF725FE63
:103F600000283DD002A8FFF720FE002811D1671CD1
:103F7000FF210322381C04F015FA281C391C0322E7
:103F8000FFF796FEA078617801F074FF2378802B0C
:103F900001D1002416E0194A801880B20228F8D80E
:103FA000E2785206520E102AF3DC271DFF21381C3E
:103FB00004F0F8F9E278281C5206520E391CFFF77B
:103FC00077FE012400203056012102F097F9019A72
:103FD0000023D356013309D10748FFF703FA05E060
:103FE000281CFF21FFF72EFE2070B1E7201C05B032
:103FF000F0BDC0460C050020FC04002000F6FFFFC9
:10400000F0B5071C87B03E1CC4363389B288D31A7A
:104010009BB20F2B17D901AC00211422201C04F0F5
:10402000C1F9381C211CFFF743FF051E0CD0E278B4
:104030005206520E03D0301C02A9FFF703FBE378AF
:10404000DB09E0D100E00125281C07B0F0BD00002D
:10405000F0B585B06E460F363170037C041C002B22
:1040600009D100932549321C0123FFF72FFE201CA4
:10407000FFF7C6FF3FE03278051C82350D2A01D0DC
:104080000A2A1AD12E78002E2DD0271C7237381C00
:104090001B49032204F06EF9002803D1201CFFF70E
:1040A000B9FD08E00023A0210093201C09013A1C5F
:1040B000331CFFF70BFE00230EE02B78102B0DD1E5
:1040C000271C01227237A021009209013A1CFFF738
:1040D000FDFD33783B7001232B7004E0591CC3189D
:1040E000703329709A70637C002B04D06B46D97BA7
:1040F000044801F071FA012005B0F0BD010A00008A
:10410000B78C0000B4060020F0B5037C85B0041C19
:104110000E1C171C002B02D08D1800272EE0022A3F
:1041200001D83D1C24E0081C03221B4904F022F99D
:104130000028F6D1032F04D0F3780D2B01D00A2BE1
:10414000EFD1201CFFF766FD22E00395102D01D969
:1041500010220392039B201CED1A2A1C511E8A4137
:104160000092DBB2321C0D49FFF7B0FD039AB6187E
:10417000002DEAD1201CFFF743FF09E0AE4207D033
:10418000236831781B68201C984701363F18F5E7F3
:10419000381C05B0F0BDC046B78C0000010A000015
:1041A00037B5051CC4352B89041C002B0AD1037CB0
:1041B000002B0AD1009307491A1CFFF787FD201C2A
:1041C000FFF71EFF288980B203E06D20205602F021
:1041D000C5F83EBD020A00007FB5061CC43633890F
:1041E0006D46041C0F35002B04D0301C291CFFF732
:1041F00041FA17E0037C002B05D100930C491A1CEF
:10420000FFF764FD05E06D20205602F0A7F80028B6
:1042100002D0201CFFF7F4FE301C291CFFF72AFAFD
:10422000002801D0287801E00120404204B070BD90
:10423000020A00007FB5061C6D46C4360F35041C0B
:10424000291C301CFFF732FA002818D1237C002BE0
:1042500006D10093201C0D491A1CFFF737FD05E01D
:104260006D20205602F07AF8002802D0201CFFF7BB
:10427000C7FE301C291CFFF719FA002801D0287846
:1042800001E00120404204B070BDC046020A0000B7
:10429000034B044A1A6000225A711A717047C046D3
:1042A0000C05002000093D00F0B556464D46444639
:1042B0005F46F0B4524A4F007F0D83B0BE18041C15
:1042C0000D1C89468A4680460197132E2ADC002E53
:1042D00056DB4C4F021C37413B1C0B4003439C46B2
:1042E000BB4667460B1C002F13D0424B404A02F0DE
:1042F000B5FC414A414B02F0E7F9002807D0002DF8
:104300004EDB53465F46BB430022994690464B46E0
:104310004246101C191C03B03CBC90469946A2466C
:10432000AB46F0BD332E0BDD0B1C8021021CC900F7
:104330008E42EED1291C02F091FC021C0B1CE8E716
:10434000019F314ABB1801225242DA4093465F4630
:10435000021C0B1C0742DCD0264B254A02F07EFCD7
:10436000254A264B02F0B0F90028D0D0002D1DDBE5
:1043700042465B469A439046D1464B464246C8E782
:104380001C4B1B4A02F06AFC1B4A1C4B02F09CF9B6
:104390000028BCD0002D17DB0027B846B946B6E789
:1043A00080235B0333415E19B246AAE7142E19D06D
:1043B000164B019A9F1A0123BB401B199C420FD92F
:1043C0006F1CBA469846D3E76B005B081C4302D1CA
:1043D0000027B8469BE70E4F00239846B94696E75C
:1043E0009846C5E76B1C9A46C2E7C046C046C04621
:1043F0009C7500883CE4377E00000000000000004F
:1044000001FCFFFFFFFF0F00EDFBFFFF3304000087
:104410000000F0BFC046C04608B5024801F0A2FC4B
:1044200008BDC0461405002008B5024801F09AFCFA
:1044300008BDC046D8050020F7B5164F1649381CF0
:1044400001F0F6F91549164801F0F2F91549164838
:1044500001F0EEF91549164801F0EAF91549164838
:1044600001F0E6F9154D03260124281C144901F03A
:10447000DFF9391C0096231C01940022114801F039
:104480004DFC0096291C01941F221E230E4801F0AA
:1044900045FCF7BDA006002000080042000C0042C9
:1044A000A406002000100042A806002000140042CC
:1044B0009C06002000180042AC060020B006002038
:1044C000001C004214050020D80500203F20704742
:1044D00013B502686B46D97107335468191C012261
:1044E000A04716BD08B50069022100F027FC08BDF1
:1044F00008B50069032100F037FC08BD38B50D1C74
:10450000041C131C006903212A1C00F029FD00284B
:1045100001D10123636038BD10B5054C23685A1CD6
:1045200004D10368DB6898472060031C181C10BD89
:10453000A0000020074A08B51368591C04D00121C7
:1045400049421160181C03E00069022100F0FAFCE6
:1045500008BDC046A000002008B503780349023317
:1045600003704222024800F0B1FD08BD5C0000204B
:104570007F0B002010B50178031C42780020A12990
:1045800008D1212A2FD118481849072200F09EFD92
:10459000012028E0212926D1202A05D1134907220C
:1045A000114800F027FC04E0222A10D19A780F4B22
:1045B000DA710E4B96221968D200914210D1DC7943
:1045C00001231C400CD1FA2001F08AF80AE0232ACA
:1045D00009D1DA789B7812021A43054B1A6002E07F
:1045E00001F084F8002010BD7F0B00205000002057
:1045F0005800002070470000064BFA21890099609E
:10460000054900220831196004495A6019611A7677
:104610007047C046B4060020109100007F0B0020B8
:1046200070B5C2B219495301CB189E68184DC02409
:104630002E40A40526439E60164E8001096830185E
:10464000083258605201505C0726B04301263043BF
:1046500050549E6935402C439C610F4C5C61505C0A
:104660007024A0431024204350549C680B488A189F
:104670002040802464032043986098684021800B88
:104680008003986053790B43537170BD880B0020F1
:10469000FFFFFF8FA0090020DC070020FF3F00F094
:1046A00038B5041C08CC01211A78051C0A431A707D
:1046B0008022201C0021520003F074FE2B689A789F
:1046C000D107FCD45C6238BD134BF0B51B6899036D
:1046D0005A029B01C90ED20E5B0F1F2900D1052182
:1046E0001F2A00D11D22072B00D1032304688E014D
:1046F000278D0A491F2539403143218501682A4009
:104700000C8DAC4322430A8502681903108D044BBB
:1047100003400B431385F0BD246080003FF8FFFF8A
:10472000FF8FFFFFEFF3108303600123436072B636
:1047300070470368002B02D162B6BFF36F8F7047DA
:1047400037B50569041C6846002D12D1FFF7EAFF52
:10475000019B013B03D3621DD57FEDB2F9E76846AB
:104760000193FFF7E6FF0020854217D0206AE36936
:1047700013E0FFF7D7FF019B0025013B04D3221C68
:1047800034321578EDB2F8E768460193FFF7D1FFB0
:104790000020854202D0206BE36AC01A3EBD0000B3
:1047A000436810B51A68037A01215B01D318FF33FF
:1047B0009A7A0A439A72037A42685B01D318C268F4
:1047C0009C6891040B4A090922400A439A60037AC3
:1047D00042685B01D3189A684021920B92039A6059
:1047E00043681A68037A08335B01D3181A790A43BD
:1047F0001A7110BDFF3F00F0F7B50569041C0E1CCF
:10480000171C6846002D1FD1FFF78CFF019B013B51
:104810005A1C06D0621DD17F5A1E00293AD0131CA3
:10482000F6E768460193FFF784FF0025E369BD4280
:1048300035D0226A934232D25A1CE261A269D3185F
:104840001B7873550135F1E7FFF76CFF019B013BC6
:104850005A1C08D0221C343215785A1EEDB2002D95
:1048600018D0131CF4E768460193FFF762FF002598
:10487000E36ABD4226D0226B934241D322E0621DFF
:104880000021D17730321678581E8E4214D1031C85
:104890005A1CF4D168460193FFF74BFF38E0226AB7
:1048A000934235D10023E361012323616846FFF77A
:1048B00039FF019B013BEBE71170201C0193FFF7CF
:1048C0006FFFF6E7226B934222D10023E36223615C
:1048D0006846FFF727FF019B013B5A1CDAD0221CD8
:1048E00034320021117001321678581E8E4201D1E7
:1048F000031CF2E71170201C0193FFF751FFEAE758
:104900005A1CE262A26AD3181B7873550135AFE7CF
:10491000281CFEBD37B54368027A1B680832520175
:104920009A18041CD0790123FF21184253D0D37167
:10493000A068656962680140002D20D149015218C4
:10494000916863618904890C2162A16A684651609B
:10495000621DD377FFF7E6FE019B013B5A1C33D063
:10496000221C34321178581EC9B20132002903D0FA
:1049700001930123137023E01170031CEEE74B0138
:10498000D3189A68A5699204920C2263002262618E
:1049900068465D60FFF7C6FE019B013B01E01170B8
:1049A0002B1C591C10D0221C343201201070621DA7
:1049B000D17F5D1EC9B230320029F0D00193107052
:1049C0006846FFF7B6FE06E068460193FFF7B1FEC2
:1049D000201CFFF7E5FE37BD37B500236C46E371B9
:1049E0000734201C0D1CFFF7B7FD2B681818286032
:1049F00001F074FD211C01F02BFD2B6818182860B4
:104A000020783EBD03290BD10D4BB2221B6852000A
:104A1000985C8021494201439954022168220CE0AC
:104A200001290CD1064B92221B685200985C802110
:104A300049420143995402212822FF329954704778
:104A4000880B002038B5304B00240121051C1A20AA
:104A50001C7001F0F9FB1A20012101F04FFC2B4BD7
:104A6000192001211C7001F0EFFB1920012101F038
:104A700045FC274B2021DA6901200A43DA61254BE6
:104A800006241A7802431A70234B0F221978914397
:104A9000197019782143197020490C782043087047
:104AA00019780A401A701A7860210A431A701C4B50
:104AB0001C4A5A805A78D209FCD11B4801F01CFAD2
:104AC0001A4C201CFFF7ECFD201CFFF7FDFD2368AE
:104AD0007F2219780A401A701A7804210A431A7042
:104AE0001A890C218A431A81C121114A8900505820
:104AF0000002000A5050802111601A7802210A43F6
:104B00001A7001232B7038BD9C090020840B0020F3
:104B100000040040584400413C44004159440041D5
:104B2000000C00400640000059550000880B002092
:104B300000E100E00078002810D0094B01211B683B
:104B40001A898A431A811A8B08210A431A831A8BFD
:104B500004210A431A83034B00221A607047C0469F
:104B6000880B00208C0C00200F4B9A69920B92034B
:104B70009A611B680222FF331A729879802252428E
:104B800002439A711A7A9007FCD5084B081C997A4F
:104B90007F221040914301439972997A80225242B8
:104BA0000A439A727047C046880B002000500041AB
:104BB00010B50B790C1C002B0BD1081CFFF7DAFC8D
:104BC000002804D1094B9A69920B92039A61012043
:104BD0000BE001F083FC211C01F06EFC0028F6D1F3
:104BE000024B9A69920B92039A6110BD880B0020C8
:104BF000F8B50D1C832A16D1CAB242495301CB180D
:104C00009C694148AD012040C024A405204398611F
:104C10003E48083245195D610B685201D15C702035
:104C20008143402065E0022A45D1382001F0AEF9E9
:104C3000374B344F8026036076000023421D036209
:104C400003614361C36147608560C660D3772F32DB
:104C5000041CC36203631370301C537003F080FBA9
:104C6000A061301C03F07CFBFF232A1C1A40520178
:104C7000A062BF18B968244A07260A40C0218905E6
:104C80000A43BA60A1686268194012680831490194
:104C9000885CAD00B043032630438854A168626845
:104CA0000B405B01A169D3185960201CFFF778FD08
:104CB000184BEC5025E0822A1ED1CAB2114953018B
:104CC000CB189C691048AD012040C024A4052043A6
:104CD00098610E48083245195D610B6852019918B8
:104CE0000C798020404220430871D15C70208143C0
:104CF00030200143D15404E0002A02D1081CFFF700
:104D00008FFCF8BD880B0020FFFFFF8FDC07002021
:104D100040910000600B002038B5051C0124064BB3
:104D2000A200D258002A06D0211C281C0134FFF70B
:104D30005FFFE4B2F3E738BDA400002008B5084BDC
:104D40008A00D058002803D003689B68984706E083
:104D5000C9B2044B4901591888688004800C08BD09
:104D6000600B0020880B002010B50C1CFFF7E6FF3D
:104D700000280CD0064BE1B21B68083149015918D4
:104D80004A7980235B4213434B710223CB7110BDE0
:104D9000880B002070B5CAB2134B14485401890126
:104DA0005918031959609D68114908322940802516
:104DB000AD022943996099684026890B890399605F
:104DC0000368510159180D7935430D715101591876
:104DD00089794D06FAD551015918C979CD07FAD507
:104DE0000419A068C0B270BDA0090020880B002083
:104DF000FF3F00F038B50C4B141C1B680D1CFF3333
:104E00005A7940210A435A710021FFF7C3FFA0429B
:104E100000D9201C0023A34204D0044A9A5CEA541F
:104E20000133F8E738BDC046880B0020A0090020F8
:104E300010B5C9B20C48490143189A689204920C03
:104E40003F2A08D9141C9A68403CA404920BA40C75
:104E50009203224302E09A68920B92039A604118EF
:104E60008868C0B210BDC046880B0020F0B51C1C7D
:104E70002F4B85B01B68061C0D1C0292002B51D0D5
:104E80002C4F3978C9B2002902D1192001F036FA25
:104E900064233B70284BAA00D058002805D0036833
:104EA00002995B68221C984740E0301C291CFFF7E0
:104EB00045FFA04204D2301C291CFFF73FFF041C11
:104EC000291C301CFFF7B4FF1C4FE9B24A010191C5
:104ED000396803928B18FF335A7A01210A43184923
:104EE0005A72AB01C9180298221C03F052FA002C26
:104EF0001BD0301C291CFFF721FF002815D1019B76
:104F00003A6808335B01D3181979402001431971BD
:104F10000121D97103995318FF339A7A01210A4369
:104F20009A7202E00120404200E0201C05B0F0BD72
:104F30008C0C0020840B0020600B0020880B0020CC
:104F4000A009002013B56C460734221C0123FFF78B
:104F50008DFF012801D1207801E00120404216BDDB
:104F6000F0B51C1C3F4B85B01B680E1C0292002B39
:104F70006AD08023DB019C4266D83B4D2978C9B2B8
:104F8000002902D11A2001F0B9F9642300222B7004
:104F90000092002C56D0354DF7B22B6801933B1C84
:104FA0000833019A5B01D3189B79DB091AD0304B87
:104FB0003049186801F0AEFA2F4B1721584301F021
:104FC000A9FA3B1C0833019A5B01D318DB799A07D5
:104FD00008D42A4B9A5D002A38D1421E002835D0C9
:104FE000101CEEE7254B00229A55251E3F2D00D9B7
:104FF0003F25234AB301D318181C02992A1C039396
:1050000003F0C7F9194A7B01D318039AA9045A611E
:105010009A69890C920B92030A439A613B1C019A8C
:1050200008335B01D3180222DA7159798022524287
:105030000A435A71009B029A5B1952190093641B30
:105040000292A6E700980BE0012008E001229A55A1
:105050007B01ED18AB69101C9B0B9B03AB614042BD
:1050600005B0F0BD8C0C00209C090020880B0020AE
:10507000D000002040420F0070110100D407002032
:10508000DC07002070B50E4D1C1C8B01ED18281C90
:105090000E1C111C221C03F07CF9F6B209497601A2
:1050A00089194D618A69084B201C13408B618B69FB
:1050B000A2049B0B920C9B0313438B6170BDC046F3
:1050C000DC070020880B0020FF3F00F0F7B5114BF4
:1050D00001901B780F1C141C002B19D10E4B1E784D
:1050E000002E01D1151C08E00C4D0D482E888019AA
:1050F000361903F04EF92E800AE0002D08D0BA19B7
:105100002B1C01980021FFF7BDFF36182D1AF4E77C
:10511000201CFEBD7E0B00207C0B0020D20700204F
:10512000D1060020F8B50E1C00AF151E012D28D9A0
:10513000D31DDB08DB006A46D21A9546081C03F033
:10514000B1F901306C4640000323207063700222E5
:10515000AA420ED23378002B0BD0511CC9B20136B3
:10516000A354A94204D0002302326354D2B2EFE721
:105170002A1C0548211CFFF7A9FF431E9841C0B215
:1051800000E00020BD46F8BD7F0B002008B5044BB1
:1051900000221A70034B04491A88FFF797FF08BDD5
:1051A0007C0B0020D2070020D1060020F0B5204A59
:1051B00087B001230026009102A91370051C0296F6
:1051C000FFF70AFC03AC092701903A1C201C311C94
:1051D00003F0E8F802236370A023E371FA2323723B
:1051E000029B0122DB196380019B62712371104ACB
:1051F000009B27701670BB4205D1281C211C1A1C6D
:10520000FFF764FF11E00B4B01221A700A4B211CBF
:105210003A1C281C1E800296FFF758FF281C02A982
:10522000FFF7DAFB281CFFF7B1FF012007B0F0BD44
:105230007E0B00207C0B0020D207002070B5CE78BA
:105240008AB0051C0C1C022E08D1C9882348FFF720
:10525000ADFF031C581E8341D8B23DE001F03EF97A
:10526000211C01F00AF9002803D0C3171B1AD80F1C
:1052700032E0012E04D1E2881949112A27D823E00F
:10528000032E29D1A278002A05D11649E2880B788D
:10529000934219D81BE0022A03D1A279281C124993
:1052A00004E0012A05D1A2791049281CFFF73AFF32
:1052B00012E0032A10D101F011F901A901F0EDF873
:1052C000A279281C01A9F1E7D2B2002A00D10A78FC
:1052D000281CFFF7FBFE01200AB070BD7F0B0020E9
:1052E0005E9100005A910000709100005091000002
:1052F00073B5051C48780C1C0B2878D801F000F910
:10530000081C7728773E4306474B686F00206FE004
:10531000097801AA002903D111705170281C09E0F5
:10532000002313705370334B1B78012B00D1137083
:10533000281C002102234FE08A780023012A04D18F
:1053400001AA137053702C4BEEE72A4A137049E000
:105350008E78012E07D1284B01AA00211E701170F2
:10536000281C331C38E0002E08D1224A0123137078
:10537000224A9169890B8903916138E0A178281C40
:10538000FFF7F2FB33E0281CFFF758FF30E0281C42
:1053900000211B4A1FE00A780020D30628D1281CD0
:1053A000FFF7BAFCA2781549154B02241A600A6867
:1053B0002A23FF33D05C2043D0544A20FF30145CB2
:1053C00001231C4314548A69920B92038A610EE0F4
:1053D0000C4A281C00210123FFF754FE07E08A78BD
:1053E000084B1A60054B9A69920B92039A6101204F
:1053F00076BDC046D00600207D0B0020880B002023
:105400008C0C0020800B0020F8B54B4B071C1C783F
:10541000002C00D08EE0494D2868838B19070DD5EC
:10542000201CFFF7FDF82B6810201A1CFF32917A20
:1054300001439172424A146008229A832B689A8B26
:1054400050071FD504229A833E4B1A78002A0AD0AF
:105450001A78013AD2B21A701B78002B03D11A20A5
:10546000012100F04BFF384B1A78002A0AD01A7835
:10547000013AD2B21A701B78002B03D119200121F6
:1054800000F03CFF2B68FF331A7AD10626D5102294
:105490001A725A7940210A432C495A710A786023BA
:1054A000381C1A4202D1FFF723FF01E0FFF780FB0F
:1054B000002806D02B688022FF33997952420A4394
:1054C00001E0234B20229A712B68FF331A7A500691
:1054D00004D540221A72597A0A435A722968FE2367
:1054E0000E8C00241E40E1B2002E23D0321C01237A
:1054F00022411A4216D0221C286808325201821812
:10550000D079184203D1D279DA401A4207D0114B30
:10551000A200D058002809D003681B6898470123CF
:10552000A3409E430134092CDDD103E0381CFFF772
:1055300069FAF4E7F8BDC0467C0B0020880B002018
:105540008C0C00209C090020840B0020A009002066
:10555000FF500041600B002008B50248FFF754FFE0
:1055600008BDC0467F0B0020014A024B1A607047FD
:1055700000500041880B0020F7B58A18061C0D1C4E
:1055800001920C1C019B671B9C4207D03368217859
:105590001B68301C984701340028F3D1381CFEBD2D
:1055A00008B50368C9B21B68984708BD38B5051C23
:1055B0000C1C081E07D002F075FF2B68021C5B68EC
:1055C000281C211C984738BD08B5FFF7EFFF08BD20
:1055D00008B5FFF7EBFF08BD08B503681B689847DF
:1055E00008BD000008B50249FFF7E0FF08BDC0464E
:1055F000B48C000038B5041CFFF7D8FF051C201C34
:10560000FFF7F0FF281838BD38B5041CFFF7CEFFB0
:10561000051C201CFFF7E6FF281838BDF0B58DB03B
:10562000161C0BAB002201900C1C1A70012E00D826
:105630000A266D462B35201C311C00F0AFFF201CC4
:10564000CFB2311C00F066FF291C041C092F01D8C1
:10565000303700E03737FFB22F70013D002CEAD120
:105660000198FFF7A3FF0DB0F0BDF8B5041C0D1CA9
:10567000161E04D10368C9B21B68984712E00A2AB3
:105680000DD100290ADA2D21FFF7A6FF6942071C78
:10569000321C201CFFF7C2FFC01903E000E0D2B2A9
:1056A000FFF7BCFFF8BD08B5FFF7DFFF08BD38B551
:1056B000041CFFF7DAFF051C201CFFF793FF2818D6
:1056C00038BD08B5002A02D1FFF76AFF02E0D2B266
:1056D000FFF7A4FF08BD08B5FFF7F3FF08BD000002
:1056E000014B18607047C046CC000020024B0122DD
:1056F00052421A607047C046CC000020154A136819
:10570000581C25D0013B1360002B21D172B6124AE0
:10571000124B04329A4207D8BFF34F8F104A114BF5
:10572000DA60BFF34F8F11E00F4B197DC807FBD52F
:10573000188B2021FF319208520001431983DA614E
:105740000A4A1A801A7DD107FCD5E5E7C046FDE775
:105750007047C046CC00002000200000030200007B
:105760000400FA0500ED00E00040004102A5FFFF43
:1057700010B50021041CA42202F014FE221CA43245
:105780000023201C1360536010BDF8B5051CA43520
:105790002E68041C0F1C701CA42100F0FFFE231CAB
:1057A000A8331B68994201D0A7552960F8BD021C97
:1057B0000023A432A83013600360704738B5021C80
:1057C000041CA834A43223681268934207D0C55C35
:1057D000A421581C00F0E2FE281C216001E00120F9
:1057E000404238BD031CA433A8301A680368D01A9D
:1057F00000D5A4307047031C021CA833A4321B68D8
:105800001268934201D0C05C01E001204042704721
:10581000031CA43310B5041C1868A421013000F047
:10582000BDFEA8342368C81A43425841C0B210BD17
:1058300001607047F7B508AC267804689D1E27689C
:105840006C1EA541ECB2920705683A4327063A431D
:105850002A600268072529405068B501002C00D055
:105860005C03294301430C435460F7BD30B5036822
:10587000C0251C68AD0312052A402243C024A4029F
:10588000090421401143196003685A6814435C609D
:1058900030BD036801211A680A431A600268116862
:1058A00001231942FBD1D1691942F8D1704703682D
:1058B00002211A680A431A600268D3699907FCD466
:1058C000704703681A7ED10702D41A7E9107FCD56F
:1058D0007047036800225A8370470368187E4007A8
:1058E000C00F70470368187EC009704703688022A4
:1058F000197E52420A431A7670470368188DC0B267
:10590000704703681A7E01200242FBD01985704758
:1059100070B5036801268D07ED0F31401C686D07D7
:10592000090729432143196004685100034800F026
:10593000F1FD0138C0B2207370BDC046006CDC02BE
:10594000036801211A680A431A600268116801237A
:105950001942FBD1D1691942F8D17047036802217D
:105960001A680A431A600268D3699907FCD4704721
:105970000368DA699107FCD41A6802218A431A6025
:10598000704703689A6A520A520211439962036887
:105990001A7E5107FCD5986AC0B27047036801218E
:1059A0001A680A431A600268116801231942FBD180
:1059B000D1691942F8D17047036802211A680A4375
:1059C0001A600368DA699107FCD45A8B30218A4344
:1059D00010210A435A830268D3695907FCD47047DF
:1059E0000368802219685968D2020A435A607047D6
:1059F0000368034A196859680A405A607047C046EC
:105A0000FFFFFBFF30B5036803241D680C40074A05
:105A1000596824040A40ED0622436D0F5A60052D93
:105A200003D10268D3695907FCD430BDFFFFFCFFE6
:105A300049001143036830B5CDB2598B03240909DD
:105A40002140012904D0598B09090C40022CF4D1C2
:105A5000596AC90AC902294359620368002A03D155
:105A60001A7ED107FCD50DE0187E012240081040B7
:105A700008D1197E1142F7D05968C02292020A4318
:105A80005A6003E05B8B01209B08984330BD03689C
:105A9000283319700268107E0123184003D1518BFE
:105AA0001942F8D003E0528B181C920890437047BB
:105AB000036828331970036800201A7E510703D544
:105AC0005B8B01209B089843704703681868C006E9
:105AD000400F043843425841C0B270470368187EF3
:105AE0004007C00F70470368187E012318407047B5
:105AF0000368588BC006C00F70470368187E800784
:105B0000C00F70470368588B0007C00F70470368C9
:105B10001A68D206520F052A02D11A7E9107FCD5C7
:105B200028331878C0B270470368224A30B59342D0
:105B300011D0214A934211D0204A934211D0204AD9
:105B4000934211D01F4A934211D01F4A934230D141
:105B50000E2319220DE0092314220AE00A2315223C
:105B600007E00B23162204E00C23172201E00D238B
:105B70001822DCB2154901209B08A0409B00086058
:105B80005B180320C021890004405D58E000FF2419
:105B90008440A5432C1CC0258540281C2043585018
:105BA0008023DB011A430A4B5A805A7852B2002AEA
:105BB000FBDB30BD00080042000C00420010004238
:105BC0000014004200180042001C004200E100E006
:105BD000000C0040F8B5041C151C0E1C1F1CFFF720
:105BE000A3FF201CFFF755FEB1001C220A406907E5
:105BF0002368090C0A431A60226884239375012ED6
:105C00001AD10821012D00D110210C4B79431868BD
:105C1000C00000F07FFC236807219A890140D2046C
:105C20004903D20C0A439A8123680004C20C988964
:105C3000400B400310439881F8BDC046D0000020BF
:105C4000F7B5019308AB041C1F780D1C161CFFF759
:105C500077FE201CFFF768FFBF070C221743C02206
:105C6000920336051640C02292022D0423683E435B
:105C700001991540354307221D600A4080212368A1
:105C800089020A435A60F7BD38B5041C0D1CFFF7A2
:105C90004BFF201CFFF782FE236814221A60074B7B
:105CA0006900186800F036FC2468421EE068FF2393
:105CB0001A4098431043E06038BDC046D000002031
:105CC0000120704708B50368014ADB69984708BDA1
:105CD0001304000010B5041C0069FFF7DAFD201C56
:105CE0001430FFF764FD10BD08B50069FFF7E9FD4A
:105CF00008BD08B51430FFF775FD08BD08B51430B0
:105D0000FFF779FD08BD08B51430FFF757FD08BD52
:105D100008B50069FFF7F5FD012008BDF7B51D1CAA
:105D200008AB1B78041C009309AB1B78161C01936D
:105D300000234360FA239B008360094B0F1C083348
:105D400003601430FFF714FD009A231CC033276151
:105D50009A70019A1E705D70201CDA70FEBDC046FC
:105D60009091000010B5041C0069FFF7B6FD0028F3
:105D700007D02069FFF7C1FD011C201C1430FFF77C
:105D800004FD2069FFF7AEFD002805D02069FFF76C
:105D9000ADFD2069FFF79DFD10BDF023081C1840E4
:105DA0003038434258417047F0231B01194080238B
:105DB0009B0099420CD0C0239B00994206D08023BF
:105DC0005B000520994204D0002002E0072000E09B
:105DD000062070470F231940012905D002394B4294
:105DE0004B410220C01A00E000207047F0B5031CB0
:105DF00085B00391C033041C182718783B1C43431B
:105E00001B4E0821F3185956151C00F0BFFA231C2D
:105E1000C133187808214743F619715600F0B6FAD5
:105E200001210A1C039B2069FFF7D4FE291C201CBA
:105E3000FFF7BAFF291C071C201CFFF7CBFF291C0A
:105E4000061C201CFFF7A9FF391C0090331C206999
:105E50000122FFF7EFFC231CC3331978013B1A78AA
:105E60002069FFF703FD2069FFF721FD05B0F0BDB4
:105E7000BC8C0000000208437047FEE7FEE700000C
:105E800008B5034B1B68002B00D0984708BDC046DF
:105E9000900C002038B50F490F4CA14204D100F0FE
:105EA00079F800F053F80BE00C4D8D42F7D0002349
:105EB000CA18E818A24204D2006804331060F7E759
:105EC000FEE79042EBD0064B064A9342E7D200220F
:105ED00004C3F9E70000002070010020A89300002F
:105EE00070010020B40C002008B500F02CF8002848
:105EF00001D100F01DF808BD014B18607047C04685
:105F0000900C0020014B18687047C046940C00208C
:105F100070B5041E08D0054B1D681E1C00F012F859
:105F200033685B1BA342F9D370BDC046940C0020BC
:105F300008B5034B1A6801321A60FFF7DFFB08BD92
:105F4000940C0020704700207047704710B500F097
:105F5000D5F802F0D5F9FFF7F8FF0120FFF7D8FFD9
:105F6000084C201CFEF76EFD201CFEF7E3FDFCF73D
:105F7000B1FDFCF74BFE044B002BFAD000E000BF54
:105F8000F7E7C0467F0B00200000000008B502F0D4
:105F9000E7F908BD70B5494A1E21536802208B43BA
:105FA0000343474953608B69082423438B61454C65
:105FB000454B9C829C8A20439882101CDA68940787
:105FC000FCD5424A012414701478E50704D53F4CEF
:105FD000647864B2002CF7DB01249460547864B2D6
:105FE000002CFBDB3A4D394C6560547864B2002CD0
:105FF000FBDB8225354CED016580547864B2002CC2
:10600000FBDB02249C84DC68E606FCD5314D2E4C7B
:10601000E562DD682C4CEE06FBD5A58C2E4E354393
:10602000A584DD68284CEE06FBD5A58C02263543F9
:10603000A584DC682506FCD5234CE4686606F8D503
:10604000DC68E506FCD500249460547864B2002C2A
:10605000FBDB224D1D4C656055781C4C6DB2002D4C
:10606000FADB1E6A1E4D35401D621D6A8026B5434F
:106070001D620323A3601B4B636053785BB2002B4C
:10608000FBDB00230B72184A4B728B72CB72174BDF
:10609000FF211A60164B174A1B6812685C01D20E6A
:1060A000214011439A06520F12020B1C1343124A4D
:1060B0001385436880221343436070BD0040004154
:1060C000000400400C06000000080040000C0040E6
:1060D00001050100B805FF7D040A00000007030068
:1060E000FFFCFFFF03060100006CDC02D000002073
:1060F000246080002060800000400042314BFA2183
:10610000186810B5890000F005FA2F4B0138984245
:1061100024D82E4A2E4B5060186AC0210002000A73
:106120000906014319620024072194601160196A6D
:1061300080220902090A12060A431A62254BFC2131
:106140001A6A0A431A62196AFC2292010A431A6205
:10615000196AA022D2020A431A6200E0FEE7201C5C
:106160000021013400F070F8142CF8D11A4C637837
:106170005BB2002BFADB194B6380194B5A7ED209B4
:10618000012AFAD0E422D2009A803F22DA70597EA6
:10619000134AC9090129FAD0C0235B010020136109
:1061A000907000F023F863785BB2002BFBDB0D4AA4
:1061B000094B5A800C4BDA79D209012AFAD04122D4
:1061C0005A7010BDD0000020FFFFFF0010E000E07B
:1061D00000ED00E000040040000C00401E40000004
:1061E00000400042214000000048004200B5144A2F
:1061F000517E131CC9090129F9D00138042813D88C
:106200001969104A0A401A615A780F218A4300F02E
:1062100077F9030509070300012102E0032100E0EB
:1062200002210A435A700AE01169F0231B050B434F
:10623000136153780F218B4302210B43537000BD30
:1062400000400042FFFFFFF010B51824021C201C84
:106250005043274B1818007A40B2013046D003292A
:1062600044D8081C211C00F04BF902331121624371
:1062700098569A18C3011F4852681B189918403144
:10628000022008700121914059602FE06243985626
:1062900018499A185268C3015B18991840310620B2
:1062A000087001219140596099611FE051435A568D
:1062B000104859184B68D2011118C81840300624EC
:1062C00004700120984048600B49521850600DE05E
:1062D000624398569A18C301064852681B189918C9
:1062E00040310220087001219140996010BDC046E4
:1062F000BC8C000000440041104400411823584366
:10630000134AF0B5131808241C5701341FD08256C5
:10631000104ED2015D6801249019231C8668AB40A1
:106320001E420BD10E1C771EBE4140193440403036
:10633000A50004780426B4432C430470002903D13B
:1063400005495218536002E0024E92199361F0BD64
:10635000BC8C000000440041104400411823584305
:10636000084A082113185956013109D082560649A6
:10637000D20152185B68106AD8400123184000E02F
:1063800000207047BC8C00000044004118224243AA
:10639000F8B52D4D0824AA181457031C621C50D0C0
:1063A000481C00240C284CD800F0AAF8071E1E1E1A
:1063B0001E1E1E1E1E0A0A0A0A000124644240E034
:1063C000092902D1181C002103E00A2904D1181C54
:1063D0000221FFF739FF23E000240B2931D1181CDB
:1063E0000121FFF731FF2CE018225343EA185268CD
:1063F000EB560120141C04405508DB01002C11D081
:10640000124C1B195D1930352E780C010F213140CB
:1064100021439A18C9B2297040321378184310707A
:1064200000240EE0094E0F279B195D1930352E7898
:106430009A18BE433143C9B22970403213781843C9
:106440001070201CF8BDC046BC8C00000044004108
:1064500070B544680E1C0025002C09D02368201C50
:106460005B68311C9847002804DB2D18E468F3E7CB
:10647000281C01E00120404270BD38B544680D1C65
:10648000002C08D02368201C9B68291C98470028F2
:1064900002D1E468F4E7201C38BD38B544680D1C0F
:1064A000002C07D02368201C291CDB689847E4686F
:1064B0002D18F5E72C7038BD38B544680D1C002C3C
:1064C00008D02368201C1B68291C9847002803D18A
:1064D000E468F4E7201C00E0012038BD064B0122EF
:1064E000196810B51140054805D102240470042430
:1064F000447041601A6010BDA00C0020980C002070
:1065000002B4714649084900095C49008E4402BC46
:106510007047C046002934D00123002210B48842BD
:106520002CD301242407A14204D2814202D20901C2
:106530001B01F8E7E400A14204D2814202D24900E3
:106540005B00F8E7884201D3401A1A434C08A04286
:1065500002D3001B5C0822438C08A04202D3001B1C
:106560009C082243CC08A04202D3001BDC08224333
:10657000002803D01B0901D00909E3E7101C10BC57
:106580007047002801D00020C04307B4024802A190
:106590004018029003BDC046D90000000029F0D089
:1065A00003B5FFF7B9FF0EBC4243891A1847C0462E
:1065B000002941D010B4041C4C40A4460123002201
:1065C000002900D54942002800D5404288422CD3FA
:1065D00001242407A14204D2814202D209011B01F5
:1065E000F8E7E400A14204D2814202D249005B00F4
:1065F000F8E7884201D3401A1A434C08A04202D35C
:10660000001B5C0822438C08A04202D3001B9C089C
:106610002243CC08A04202D3001BDC0822430028FE
:1066200003D01B0901D00909E3E7101C6446002CC4
:1066300000D5404210BC7047002806D003DB002084
:10664000C043400801E08020000607B4024802A1D0
:106650004018029003BDC046190000000029EBD08D
:1066600003B5FFF7A7FF0EBC4243891A1847C0467F
:106670007047C0468446101C62468C46191C63460F
:1066800000E0C0461FB500F0CDFE002801D4002177
:10669000C8421FBD10B500F0FDFD4042013010BDE5
:1066A00010B500F0BFFE002801DB002010BD012066
:1066B00010BDC04610B500F0B5FE002801DD002079
:1066C00010BD012010BDC04610B500F02DFE002801
:1066D00001DC002010BD012010BDC04610B500F047
:1066E00023FE002801DA002010BD012010BDC046A5
:1066F00038B50E4B0C4A041C0D1CFFF7EFFF0028A9
:1067000004D1201C291C01F0C5FC38BD074B064AEA
:10671000201C291C01F094F901F0BCFC80231B060D
:10672000C018F2E7C046C046000000000000E0418B
:10673000F0B55F4656464D464446F0B44602450025
:10674000C00F85B00F1C760A2D0E804641D0FF2D5C
:1067500026D08024240400212643F6007F3D89466C
:106760008B46F90F7C027800640A000E00918A467D
:106770003CD0FF2834D080231B041C430023E400BA
:106780007F380193009F4346019A7B4049469C46CF
:1067900011430F2900D971E0764F89007F58BF4619
:1067A000002E3ED10822022391469B46D9E75A4645
:1067B000341CC24601920199022937D0032900D125
:1067C000CFE0012900D0ABE053460B400022002669
:1067D00032E0002E19D10421012289469346C0E7F8
:1067E000221C531E9A4102320192CBE701270197E6
:1067F000002CC7D0201C01F05FFD431F9C40762376
:106800005B420021181A0191BCE7301C01F054FDD5
:106810007625431F9E406D4200232D1A99469B46C4
:106820009FE70C23032199468B469AE7D446012320
:1068300067463B40FF2200267602D205700ADB073E
:106840001043184305B03CBC90469946A246AB465F
:10685000F0BD80260023F603FF22EDE7002200268C
:10686000EAE78020C00306423BD0044239D1061C2F
:1068700026437602760A009BFF22DDE7281A039062
:1068800076016401A64239D3361B1A220123012066
:10689000311C5B007600002901DBB44201D8361BB5
:1068A0000343013A002AF3DC741EA641341C1C4346
:1068B000039A7F32002A27DD630704D00F23234089
:1068C000042B00D00434270103D52B4B039A1C4022
:1068D0008032FE2A0BDD012361460B40FF22002699
:1068E000AAE706437602760A4346FF22A4E7A401FC
:1068F00001236746660AD2B23B409DE7039F1B22F5
:10690000013F03970023C2E77E23039F5B42DB1B0B
:106910001B2B07DD012361460B40002200268BE77D
:10692000D446C5E7221CDA40039B9E339C40231CBF
:106930005C1EA34113435A0704D00F221A40042AB5
:1069400000D004335F0105D5012361460B400122CD
:10695000002671E79E01624601231340760A002259
:106960006AE78026F60326437602760A5346FF221C
:1069700062E7C046C0910000FFFFFFF7F8B5C20F05
:10698000430244004D024800240E161C9B09000ED1
:10699000C90FAD09FF2800D17EE0012779408A4266
:1069A00058D0221A002A00DC89E000281BD1002DD3
:1069B00000D075E0580704D00F221A40042A00D0F6
:1069C0000433590138D50134FF2C00D183E09B01F9
:1069D00001225B0AE0B232405B02C405580AD207CA
:1069E00020431043F8BDFF2CE4D08021C9040D439F
:1069F0001B2A00DD2DE1291C2020D140821A954060
:106A00006A1E95410D435B1B5801D3D59B019F091D
:106A1000381C01F051FC421F9740944260DC141B6B
:106A20001F231B1B3A1C9F40611C3B1CCA405F1E5E
:106A3000BB4113430024BDE70122DB08E0B2324032
:106A4000FF2C04D1002B7ED08021C9030B435B02B5
:106A50005B0AC1E7211A002946DD002826D0FF2C59
:106A6000A8D08020C00405431B2900DDEFE0281CCE
:106A70002027C840791A8D40691E8D4105435B1956
:106A8000590197D50134FF2C5CD0734901221A407B
:106A90000B405B0813438DE7002D00D07FE77CE7B8
:106AA000013A002AAFD0FF2CA2D183E7002D00D1FC
:106AB00080E701390029E2D0FF2CD5D17AE7002AFE
:106AC0001ED1621CD2B2012A4EDD5F1B7A0126D58F
:106AD000EF1A0E1C9CE701223240FF2000237BE7C7
:106AE0005D4BA41A3B4065E7002946D1611CC8B242
:106AF00001282ADDFF2925D0EB185B080C1C59E77B
:106B0000002C13D0FF2818D08024E40452422343E1
:106B10001B2A4DDD0123EB1A041C0E1C74E7002F09
:106B200000D075E700220020002390E7002B3BD027
:106B3000D243002AEFD0FF28EAD12B1CFF240E1CE1
:106B400038E70022FF20002346E7002C5AD1002B13
:106B500077D0002D00D12DE75B19580100D429E72B
:106B60003D4A0124134025E7002C15D1002B2FD1DD
:106B7000002DD7D02B1C0E1C1CE7002C21D1002B84
:106B800053D0C943002904D0FF284BD01B294FDD27
:106B900001235B19041C73E7002B22D1002DD0D0F8
:106BA0002B1C0E1CFF2405E72B1C041C0E1C01E7EC
:106BB0001C1C2026D440B21A93405A1E93412343F2
:106BC000A9E7FF282ED08024E40449422343DDE7CF
:106BD000002D00D1EEE65A1B500134D5EB1A0E1CE5
:106BE000E8E6FF24002D00D1E4E68022DB08D20392
:106BF000134204D0ED08154201D12B1C0E1CDB0002
:106C0000FF24D7E6002B0DD0FF24002D00D1D1E6C4
:106C10008022DB08D2031342F1D0ED081542EED1F9
:106C20002B1CECE72B1CFF24C4E62B1C041CC1E628
:106C30001C1C2027CC40791A8B40591E8B412343C2
:106C4000A7E72B1CB6E6131E00D0B3E66AE70125C2
:106C500015E70125D7E6C046FFFFFFFBF8B55F4605
:106C6000564644464D46F0B40C034D00CE0F610A23
:106C7000440F2143C400180380465800400D82464B
:106C8000D80F84464046400A530F0343D0006D0D91
:106C9000371C83465246664500D19DE0AF1A002F4F
:106CA00000DC03E1002A38D1184300D0E4E0630798
:106CB00009D00F232340042B05D0231DA342A44158
:106CC000644209191C1C080200D478E0CE4B6A1CEF
:106CD0009A4200D105E1CD4BE4081940480752051E
:106CE000490204430B0B520D371C002000211B03EB
:106CF000201C1C0B0B0D1B05C54D234352055208D0
:106D00001D4015436D006D08FF07291C39433CBC2D
:106D100090469946A246AB46F8BDBB488542C6D0D0
:106D2000802000040343382F00DDECE01F2F00DD3E
:106D300020E12020C01B1A1C814682405846F840A2
:106D40000243944658464A469040421E9041FB40BA
:106D5000624602431F1CA21A9442A4416442C91B0A
:106D6000091B141C0B02A2D549024F0A002F00D1A7
:106D7000C4E0381C01F0A0FA021C083A1F2A00DD0A
:106D8000B7E02821091A201C9740C84007439440C7
:106D9000954200DDA9E0551B691C1F2900DDD8E0E4
:106DA0001F22551B3B1C221CAB40CA40AC40651E39
:106DB000AC411343CF401C43391C002577E74807FB
:106DC000E4086A05C908520D371C04438E4B9D42E6
:106DD00048D009030B0B88E7AA1A9446002A00DC66
:106DE00098E05046002853D08748854200D15EE79E
:106DF0008020000403436246382A00DDFDE01F2A9C
:106E000000DD4BE120226046101A1A1C82408246A7
:106E1000914658466246D0404A46024390465846FC
:106E200052469040421E9041424602436046C34053
:106E30001219A242A441644259180919141C0802EB
:106E400000D434E7704B01359D4200D124E16F4BF3
:106E500060081940012323401C1C0443CB071C433A
:106E6000490824E70B1C234300D1C7E180231B03FF
:106E70000B431B031B0B38E7013F002F64D158461F
:106E8000221A9442A4416442C91A091B141C69E7DE
:106E90005846184300D10AE7012252429444604602
:106EA000002800D0C5E058460219C2E7002F72D171
:106EB000681C4005400D012800DCDEE05A46A21A9D
:106EC0009442BF41C81A7F42C71B380200D488E0F1
:106ED0005A46141BA3459241591A52428F1A6646CC
:106EE00044E7371C00230024FFE64849AD1A394027
:106EF000DDE6271C28388740002449E7201C01F0E4
:106F0000DBF9203038E75A461A43531E9A41D2B271
:106F1000002720E7002A00D0DDE0681C4205520D62
:106F2000012A00DC8EE0384DA84200D1B3E05D4676
:106F30002A19A242A441644259180919CC075208DF
:106F400014434908051CB2E62F48854200D0EAE602
:106F5000ADE62B1C1F3B3A1CDA40131C20296DD0D8
:106F60003F22551BAF403C43601E84411C4300211F
:106F700000259CE6381C20381A1CC240101C202F0B
:106F80005ED04022D71BBB405A461A43531E9A413B
:106F900002430027DFE6002D3CD01B4DAA4500D15F
:106FA00094E080252D047F422943382F00DDADE099
:106FB0001F2F00DD2CE12025ED1B081C261CA840FE
:106FC000FE40AC400643651EAC413443F9405D468B
:106FD0002C1BA34592415B1A5242991A55466646AC
:106FE000C0E6131C3B43141C002B00D0BEE6002758
:106FF0000022002500210024E8E65A461A43531EC9
:107000009A41D2B2002313E7FF070000FFFF7FFF82
:10701000FFFF0F800D1C254358D0FF43002F51D197
:10702000041BA3459241591A5242891A5546664695
:1070300098E69648854200D0DDE638E6002792E7DC
:107040000023A1E7081C2043002D00D0C0E0002849
:1070500000D1FBE05846184300D128E658460219F3
:10706000A242A441644259180919141C0A0200D40E
:107070001DE6874B0125194019E6081C2043002D09
:1070800039D100286DD15946194300D1BDE0191CF2
:107090005C4666460BE6051C2A1CABE760462038BA
:1070A0001A1CC24060469146202800D1ABE0402225
:1070B000121A93405A461A43531E9A414B461A439A
:1070C0000023B5E6714DAA4500D06EE7191C5C4659
:1070D00055466646EBE5002D1ED10D1C254373D0A9
:1070E000D543002D6DD15C445C4592415918524204
:1070F00089185546A3E6002849D15946194300D1BD
:1071000096E0191C5C466646604DD0E50C43611E56
:107110008C41E4B200215AE75C4DAA4554D0554257
:10712000802210040143382D00DD85E01F2D00DD95
:1071300095E02022501B0A1C84468240201CE84017
:107140000243904662469440601E84414246144386
:10715000E9405C445C459241CB185242991855462F
:107160006DE65846184300D1A1E55846271ABC429F
:107170009241C81A5242801A02026AD55846041B2C
:10718000A3459241591A5242891A66468FE55846DC
:10719000184336D04807E40804438020C908000398
:1071A000014208D0DD08054205D15946CA085C07EE
:1071B0001443291C6646630FC9001943E400334D8C
:1071C00075E5324A9245AED1191C5C4655466EE5CE
:1071D000002837D05846184313D080254807E408C4
:1071E000C9082D0304432942E5D0D8082842E2D13A
:1071F0005D46EA085C071443011CDCE70023002419
:1072000073E5224D53E5002354E700270022F1E601
:107210003D1C203D0A1CEA40151C202F31D0402681
:10722000F71BB9400C43611E8C412C430021CEE674
:10723000164A0027151CDDE60C43611E8C41E4B2A2
:10724000002186E7191C5C46104D30E5191C5C4690
:107250002DE5031C3B43D8D0011C3C1C27E5202016
:10726000404240190A1CC2409046202D0BD04020BD
:10727000451BA9400C43611E8C4145462C4300210F
:1072800067E70021CEE70021F4E7C046FF070000D2
:10729000FFFF7FFFF0B55F4656464D464446F0B4CB
:1072A0000D1C041C8046E80F814618030F03000BD9
:1072B0003F0B83B084461B48009749005E00DF0FF8
:1072C000490D9246760DBB4681420CD01548864248
:1072D00010D00120B14215D003B03CBC9046994675
:1072E000A246AB46F0BD009F01202743F4D10D48D4
:1072F0008642EED1604602430120002AECD10120F3
:10730000B142E9D1009B6345E6D1D045E4D1D945EE
:1073100006D00029E0D11C43201C441EA041DBE71D
:107320000020D9E7FF070000F0B55F4656464D46FE
:107330004446F0B4CD0FDE0FAC461D032D0BB14615
:10734000374E0F034C00AB465D0080463F0B640D8B
:1073500092466D0DB44232D0314EB54235D0002C3C
:107360000ED1384341424141081C002D0BD0002969
:1073700019D1CC452DD0654668420123184318E049
:10738000002DF6D1281C59460A4353425341002888
:1073900006D1002BEDD0634658420123184308E084
:1073A0000020002B05D14A46504250414042012363
:1073B00018433CBC90469946A246AB46F0BD3E1CE5
:1073C0000643C9D002204042F3E75E461643C6D0CA
:1073D000F8E7AC4207DC0BDA6146484248414042DC
:1073E00001231843E5E76646704201231843E0E7AE
:1073F0005F450AD80ED000205F45DAD26546684264
:107400006841404201231843D3E7624650420123BA
:107410001843CEE7D045F8D80020D045EED3C8E7D2
:10742000FF070000F0B556464D4644465F46F0B4AF
:107430000D1C83B0041C0190E80F814618030F0354
:10744000000B3F0B84463548009749005E00DF0F74
:10745000490D9246760DB846814234D02F48864277
:1074600036D0002918D0002E1FD1341C67463A436D
:1074700053425341002C1FD00020002B05D142461F
:107480005042504140420123184303B03CBC904657
:107490009946A246AB46F0BD009804436042604165
:1074A000041C002EE2D00028E9D1C14515D04F467A
:1074B000784201231843E8E7002BF6D04B465842A8
:1074C00001231843E1E7009F02202743DDD1C5E7F0
:1074D000674602201743D8D1C3E7B14204DD4A46CC
:1074E000504201231843D0E7B14207DB00986045C2
:1074F000E4D80AD0009F00206745C6D24F467842A4
:107500007841404201231843BFE7019A5245D5D83C
:10751000019A00205245F1D3B7E7C046FF070000AB
:10752000F0B5564644465F464D46F0B41F1C0B036B
:107530001B0B9A464B0087B0041C80465B0DC80F9E
:10754000161C02938146002B68D0694B0299994220
:1075500032D08022534652031A43D200630F1A439B
:107560009246644AE0008918804602910024002572
:107570003B031B0B9B467800FB0F321C400D039313
:1075800000D175E05A4B984269D080225946520387
:107590000A43730FD2001A43564B9346C018F200A9
:1075A000002303994E4671401C430F2C00D9A9E0DB
:1075B000514EA4003459A74653461C4300D087E0DF
:1075C0000025AA46A84608240225D1E74946022DEF
:1075D0006CD0032D00D117E2012D00D058E10D40F1
:1075E000EDB20024A9460023A04600200021250377
:1075F0000A0D1C052D0B1205404B2A431340234353
:107600005B004C465B08E207191C4046114307B07B
:107610003CBC90469946A246AB46F0BD5346234338
:1076200050D05346002B00D184E1504600F044FE78
:10763000031E272B00DD76E128210D1A211C083BB3
:107640005246E9409A400D1C1543221C9A40AA4616
:1076500090462B4B00241B1A0293002588E75B46BB
:107660001E430323002E9CD1B3460022022398E739
:107670005B46334321D05846002800D14EE100F04C
:107680001BFE272800DD42E128210F1A021C311CB5
:10769000083A5B46F94093400F1C1F43331C93404C
:1076A000BB461A1C164B181A00237AE701230B401D
:1076B00000249946A0460E4B97E70027BB460022C0
:1076C00001236EE7002104248A46884601254FE7FE
:1076D0000C2403254CE700258024A9462403A84652
:1076E000034B82E7DA46904603991D1C6FE7C046BC
:1076F000FF07000001FCFFFF00920000FFFF0F806A
:107700000DFCFFFF029F160C381804904046070C32
:107710000004000C1204120C031C5343041C3D1CF7
:107720007443554398463B1C73436419A44644462E
:107730000293230C63449D4204D9029D8024640279
:107740002D1902951D0C039545462C041B04240C91
:107750001C1905945C46230C051C58432404240C76
:107760008446381C604365435F438146CC44280C03
:107770006044BB46814502D980277F02BB442D046B
:10778000070C2D0C000440195546BC462F04E34459
:107790008446280C3D0C2F1C5743B8462F1C7743BA
:1077A0004243B94647463F0C9144BA46D14446430A
:1077B0004A4502D980225202B6184F463A0CB618F2
:1077C0003A0447463F043F0CB8462F1C67435D43CD
:1077D0004443584365190190380C2D184244B8466B
:1077E000AC4204D9019880235B02C0180190039C2D
:1077F000029F201C6044C0196045A4414746644272
:10780000A4462B043C049946240C4C44A046D8447E
:107810008018C246E24490429241574652429146F5
:10782000F219E245BF417F424B46BC46D845BF41B5
:10783000D4187F4263461F432D0C7F19B2429241F8
:107840004C45AD4152426D421543019E7D19AB1925
:10785000E20D5B02059F134342023A439A46531ED0
:107860009A41C30D101C18436402204380465046C1
:10787000C0010DD5454601225646049C6B082A409E
:107880001A43F30701341A43760804949046B2462B
:10789000049E634FF319002B61DD404640070BD077
:1078A0000F2244462240042A06D042460432424572
:1078B00080414042824490465546ED0107D5594BE0
:1078C0005646049F80201E40C000B2463B18564AD0
:1078D000934200DDEAE644465546E2086807104355
:1078E00001226C025B050A408046240B5B0D914629
:1078F0007BE6DA4690461D1C69E680242403574641
:1079000027421CD13C432403240B484B6DE6031C47
:10791000283B311C99408B460022C3E6301C00F006
:10792000CBFC2030ADE6283B211C994000228A4642
:1079300090468EE6201C00F0BFFC203078E65846CA
:10794000204207D1044303992403240B894690461F
:10795000364B4AE63C432403240B344B45E6344B78
:10796000049E9B1B382B06DD01230B400024994607
:10797000A046002339E61F2B25DC049C2D4D4646EE
:107980006019524644468640DC4082405746301CCF
:107990002243DF40441EA04102433B1C540709D050
:1079A0000F201040042805D0101D904292415242F1
:1079B0009B18021C1D021AD501230B400024994676
:1079C000A046012311E61C48049C5546001BC540F7
:1079D000281C202B16D0194E5746A21997403A1C46
:1079E00043461A43531E9A4102430023D6E75807E1
:1079F0005B02D2081C0B01230B40104399468046C2
:107A00000023F2E50022EBE7802424035046012303
:107A1000044319402403240B8946044BE5E5C04682
:107A2000FF030000FFFFFFFEFE070000FF0700004E
:107A300002FCFFFF1E040000E2FBFFFF3E0400000B
:107A4000F8B55F46564644464D46F0B40C034D002B
:107A5000CF0F610A440F2143C4001803DE0F804694
:107A6000B44646465800760A530F3343D600C94AF7
:107A70006D0DBA46400DB346904200D1EBE0624630
:107A8000012672409446674500D1A1E02F1A002FCD
:107A900000DC08E100283BD15846184300D0E8E05C
:107AA000600709D00F232340042B05D0231DA342D8
:107AB000A441644209191C1C0A0200D479E0B54BA8
:107AC0006A1C9A4200D109E1B34BE4081940480707
:107AD000044349025205012750460B0B520D074043
